{
  "address": "0xE66EDdB497af36eF1C52EE2265155e6Edf2ABA05",
  "abi": [
    {
      "inputs": [
        {
          "internalType": "address",
          "name": "_registry",
          "type": "address"
        },
        {
          "internalType": "address",
          "name": "_stablecoin",
          "type": "address"
        },
        {
          "internalType": "address",
          "name": "_nctToken",
          "type": "address"
        },
        {
          "internalType": "address",
          "name": "_dexRouter",
          "type": "address"
        }
      ],
      "stateMutability": "nonpayable",
      "type": "constructor"
    },
    {
      "anonymous": false,
      "inputs": [
        {
          "indexed": true,
          "internalType": "address",
          "name": "retiree",
          "type": "address"
        },
        {
          "indexed": true,
          "internalType": "address",
          "name": "token",
          "type": "address"
        },
        {
          "indexed": false,
          "internalType": "uint256",
          "name": "tcoAmount",
          "type": "uint256"
        },
        {
          "indexed": false,
          "internalType": "uint256",
          "name": "usdcAmount",
          "type": "uint256"
        }
      ],
      "name": "Retired",
      "type": "event"
    },
    {
      "inputs": [
        {
          "internalType": "uint256",
          "name": "stableCoinAmount",
          "type": "uint256"
        },
        {
          "internalType": "string",
          "name": "filter",
          "type": "string"
        }
      ],
      "name": "burnCO2",
      "outputs": [
        {
          "internalType": "uint256",
          "name": "totalTco2AmountBurned",
          "type": "uint256"
        },
        {
          "internalType": "uint256",
          "name": "totalUsdcAmountBurned",
          "type": "uint256"
        }
      ],
      "stateMutability": "nonpayable",
      "type": "function"
    },
    {
      "inputs": [
        {
          "internalType": "address",
          "name": "projectToken",
          "type": "address"
        },
        {
          "internalType": "uint256",
          "name": "stableCoinAmount",
          "type": "uint256"
        }
      ],
      "name": "burnProjectToken",
      "outputs": [
        {
          "internalType": "uint256",
          "name": "",
          "type": "uint256"
        },
        {
          "internalType": "uint256",
          "name": "",
          "type": "uint256"
        }
      ],
      "stateMutability": "nonpayable",
      "type": "function"
    },
    {
      "inputs": [
        {
          "internalType": "address",
          "name": "projectToken",
          "type": "address"
        },
        {
          "internalType": "uint256",
          "name": "stableCoinAmount",
          "type": "uint256"
        }
      ],
      "name": "burnProjectTokenQuote",
      "outputs": [
        {
          "internalType": "uint256",
          "name": "",
          "type": "uint256"
        },
        {
          "internalType": "uint256",
          "name": "",
          "type": "uint256"
        }
      ],
      "stateMutability": "view",
      "type": "function"
    },
    {
      "inputs": [],
      "name": "dexRouter",
      "outputs": [
        {
          "internalType": "contract IUniswapV2Router02",
          "name": "",
          "type": "address"
        }
      ],
      "stateMutability": "view",
      "type": "function"
    },
    {
      "inputs": [],
      "name": "nctToken",
      "outputs": [
        {
          "internalType": "address",
          "name": "",
          "type": "address"
        }
      ],
      "stateMutability": "view",
      "type": "function"
    },
    {
      "inputs": [],
      "name": "registry",
      "outputs": [
        {
          "internalType": "contract Registry",
          "name": "",
          "type": "address"
        }
      ],
      "stateMutability": "view",
      "type": "function"
    },
    {
      "inputs": [],
      "name": "stablecoin",
      "outputs": [
        {
          "internalType": "contract IERC20",
          "name": "",
          "type": "address"
        }
      ],
      "stateMutability": "view",
      "type": "function"
    }
  ],
  "transactionHash": "0xb6b98a2d351acb740596660a967b87ea65d02bf4a3df8e584a4c457135a3385a",
  "args": [
    "0x6BFe9a97A37DD49fBe0Cb6B010bD5Ecc95662db6",
    "0x2791Bca1f2de4661ED88A30C99A7a9449Aa84174",
    "0xD838290e877E0188a4A44700463419ED96c16107",
    "0x1b02dA8Cb0d097eB8D57A175b88c7D8b47997506"
  ],
  "numDeployments": 2,
  "solcInputHash": "5dcf46409ee89e5e54f93e79151ee87d",
  "bytecode": "0x6101006040523480156200001257600080fd5b5060405162001f3d38038062001f3d83398181016040528101906200003891906200017c565b8373ffffffffffffffffffffffffffffffffffffffff1660808173ffffffffffffffffffffffffffffffffffffffff16815250508273ffffffffffffffffffffffffffffffffffffffff1660a08173ffffffffffffffffffffffffffffffffffffffff16815250508173ffffffffffffffffffffffffffffffffffffffff1660e08173ffffffffffffffffffffffffffffffffffffffff16815250508073ffffffffffffffffffffffffffffffffffffffff1660c08173ffffffffffffffffffffffffffffffffffffffff168152505050505050620001ee565b600080fd5b600073ffffffffffffffffffffffffffffffffffffffff82169050919050565b6000620001448262000117565b9050919050565b620001568162000137565b81146200016257600080fd5b50565b60008151905062000176816200014b565b92915050565b6000806000806080858703121562000199576200019862000112565b5b6000620001a98782880162000165565b9450506020620001bc8782880162000165565b9350506040620001cf8782880162000165565b9250506060620001e28782880162000165565b91505092959194509250565b60805160a05160c05160e051611c9e6200029f600039600081816101b3015281816102bb015281816103680152818161088f01528181610c8401528181610d31015261105001526000818161018f0152818161032c0152818161049601528181610656015281816106d901528181610cf50152610e5f01526000818161024c015281816105790152818161061a01528181610c15015261110f0152600081816101d70152610a870152611c9e6000f3fe608060405234801561001057600080fd5b506004361061007d5760003560e01c80638def62481161005b5780638def6248146100dc578063c10df1e51461010d578063e3ab7e701461013e578063e9cbd8221461016f5761007d565b80630758d92414610082578063105036ae146100a05780637b103999146100be575b600080fd5b61008a61018d565b60405161009791906111c9565b60405180910390f35b6100a86101b1565b6040516100b59190611205565b60405180910390f35b6100c66101d5565b6040516100d39190611241565b60405180910390f35b6100f660048036038101906100f191906112d2565b6101f9565b604051610104929190611321565b60405180910390f35b61012760048036038101906101229190611490565b610a80565b604051610135929190611321565b60405180910390f35b610158600480360381019061015391906112d2565b610bc2565b604051610166929190611321565b60405180910390f35b61017761110d565b604051610184919061150d565b60405180910390f35b7f000000000000000000000000000000000000000000000000000000000000000081565b7f000000000000000000000000000000000000000000000000000000000000000081565b7f000000000000000000000000000000000000000000000000000000000000000081565b6000806000600267ffffffffffffffff81111561021957610218611365565b5b6040519080825280602002602001820160405280156102475781602001602082028036833780820191505090505b5090507f00000000000000000000000000000000000000000000000000000000000000008160008151811061027f5761027e611528565b5b602002602001019073ffffffffffffffffffffffffffffffffffffffff16908173ffffffffffffffffffffffffffffffffffffffff16815250507f0000000000000000000000000000000000000000000000000000000000000000816001815181106102ee576102ed611528565b5b602002602001019073ffffffffffffffffffffffffffffffffffffffff16908173ffffffffffffffffffffffffffffffffffffffff168152505060007f000000000000000000000000000000000000000000000000000000000000000073ffffffffffffffffffffffffffffffffffffffff16631f00ca747f000000000000000000000000000000000000000000000000000000000000000073ffffffffffffffffffffffffffffffffffffffff1663523fba7f896040518263ffffffff1660e01b81526004016103bf9190611205565b602060405180830381865afa1580156103dc573d6000803e3d6000fd5b505050506040513d601f19601f82011682018060405250810190610400919061156c565b846040518363ffffffff1660e01b815260040161041e929190611657565b600060405180830381865afa15801561043b573d6000803e3d6000fd5b505050506040513d6000823e3d601f19601f82011682018060405250810190610464919061174f565b905060008160008151811061047c5761047b611528565b5b602002602001015190506104908682611131565b955060007f000000000000000000000000000000000000000000000000000000000000000073ffffffffffffffffffffffffffffffffffffffff1663d06ca61f88866040518363ffffffff1660e01b81526004016104ef929190611657565b600060405180830381865afa15801561050c573d6000803e3d6000fd5b505050506040513d6000823e3d601f19601f82011682018060405250810190610535919061174f565b905060008160008151811061054d5761054c611528565b5b6020026020010151905060008260018151811061056d5761056c611528565b5b602002602001015190507f000000000000000000000000000000000000000000000000000000000000000073ffffffffffffffffffffffffffffffffffffffff166323b872dd33308c6040518463ffffffff1660e01b81526004016105d493929190611798565b6020604051808303816000875af11580156105f3573d6000803e3d6000fd5b505050506040513d601f19601f820116820180604052508101906106179190611807565b507f000000000000000000000000000000000000000000000000000000000000000073ffffffffffffffffffffffffffffffffffffffff1663095ea7b37f0000000000000000000000000000000000000000000000000000000000000000846040518363ffffffff1660e01b8152600401610693929190611834565b6020604051808303816000875af11580156106b2573d6000803e3d6000fd5b505050506040513d601f19601f820116820180604052508101906106d69190611807565b507f000000000000000000000000000000000000000000000000000000000000000073ffffffffffffffffffffffffffffffffffffffff166338ed17398a838930426040518663ffffffff1660e01b815260040161073895949392919061185d565b6000604051808303816000875af1158015610757573d6000803e3d6000fd5b505050506040513d6000823e3d601f19601f82011682018060405250810190610780919061174f565b506000600167ffffffffffffffff81111561079e5761079d611365565b5b6040519080825280602002602001820160405280156107cc5781602001602082028036833780820191505090505b50905081816000815181106107e4576107e3611528565b5b6020026020010181815250506000600167ffffffffffffffff81111561080d5761080c611365565b5b60405190808252806020026020018201604052801561083b5781602001602082028036833780820191505090505b5090508b8160008151811061085357610852611528565b5b602002602001019073ffffffffffffffffffffffffffffffffffffffff16908173ffffffffffffffffffffffffffffffffffffffff16815250507f000000000000000000000000000000000000000000000000000000000000000073ffffffffffffffffffffffffffffffffffffffff16632b55414282846040518363ffffffff1660e01b81526004016108e8929190611975565b600060405180830381600087803b15801561090257600080fd5b505af1158015610916573d6000803e3d6000fd5b5050505060008c73ffffffffffffffffffffffffffffffffffffffff166370a08231306040518263ffffffff1660e01b81526004016109559190611205565b602060405180830381865afa158015610972573d6000803e3d6000fd5b505050506040513d601f19601f82011682018060405250810190610996919061156c565b90508c73ffffffffffffffffffffffffffffffffffffffff16633790cf57826040518263ffffffff1660e01b81526004016109d191906119ac565b600060405180830381600087803b1580156109eb57600080fd5b505af11580156109ff573d6000803e3d6000fd5b505050508c73ffffffffffffffffffffffffffffffffffffffff163373ffffffffffffffffffffffffffffffffffffffff167f350c829dba3762192f7f146eaafe340156dec54eedfaea1df84a706c1307cfb8838f604051610a62929190611321565b60405180910390a3808c9a509a505050505050505050509250929050565b60008060007f000000000000000000000000000000000000000000000000000000000000000073ffffffffffffffffffffffffffffffffffffffff166303b2302c856040518263ffffffff1660e01b8152600401610ade9190611a46565b600060405180830381865afa158015610afb573d6000803e3d6000fd5b505050506040513d6000823e3d601f19601f82011682018060405250810190610b249190611b40565b905060008590506000809450600093505b600082118015610b455750825181105b15610bb857600080610b71858481518110610b6357610b62611528565b5b6020026020010151856101f9565b80925081935050508084610b859190611bb8565b93508187610b939190611bec565b96508086610ba19190611bec565b95508280610bae90611c20565b9350505050610b35565b5050509250929050565b6000806000600267ffffffffffffffff811115610be257610be1611365565b5b604051908082528060200260200182016040528015610c105781602001602082028036833780820191505090505b5090507f000000000000000000000000000000000000000000000000000000000000000081600081518110610c4857610c47611528565b5b602002602001019073ffffffffffffffffffffffffffffffffffffffff16908173ffffffffffffffffffffffffffffffffffffffff16815250507f000000000000000000000000000000000000000000000000000000000000000081600181518110610cb757610cb6611528565b5b602002602001019073ffffffffffffffffffffffffffffffffffffffff16908173ffffffffffffffffffffffffffffffffffffffff168152505060007f000000000000000000000000000000000000000000000000000000000000000073ffffffffffffffffffffffffffffffffffffffff16631f00ca747f000000000000000000000000000000000000000000000000000000000000000073ffffffffffffffffffffffffffffffffffffffff1663523fba7f896040518263ffffffff1660e01b8152600401610d889190611205565b602060405180830381865afa158015610da5573d6000803e3d6000fd5b505050506040513d601f19601f82011682018060405250810190610dc9919061156c565b846040518363ffffffff1660e01b8152600401610de7929190611657565b600060405180830381865afa158015610e04573d6000803e3d6000fd5b505050506040513d6000823e3d601f19601f82011682018060405250810190610e2d919061174f565b9050600081600081518110610e4557610e44611528565b5b60200260200101519050610e598682611131565b955060007f000000000000000000000000000000000000000000000000000000000000000073ffffffffffffffffffffffffffffffffffffffff1663d06ca61f88866040518363ffffffff1660e01b8152600401610eb8929190611657565b600060405180830381865afa158015610ed5573d6000803e3d6000fd5b505050506040513d6000823e3d601f19601f82011682018060405250810190610efe919061174f565b9050600081600081518110610f1657610f15611528565b5b60200260200101519050600082600181518110610f3657610f35611528565b5b602002602001015190506000600167ffffffffffffffff811115610f5d57610f5c611365565b5b604051908082528060200260200182016040528015610f8b5781602001602082028036833780820191505090505b5090508181600081518110610fa357610fa2611528565b5b6020026020010181815250506000600167ffffffffffffffff811115610fcc57610fcb611365565b5b604051908082528060200260200182016040528015610ffa5781602001602082028036833780820191505090505b5090508b8160008151811061101257611011611528565b5b602002602001019073ffffffffffffffffffffffffffffffffffffffff16908173ffffffffffffffffffffffffffffffffffffffff168152505060007f000000000000000000000000000000000000000000000000000000000000000073ffffffffffffffffffffffffffffffffffffffff166341dbbb2a83856040518363ffffffff1660e01b81526004016110a9929190611975565b602060405180830381865afa1580156110c6573d6000803e3d6000fd5b505050506040513d601f19601f820116820180604052508101906110ea919061156c565b905080846110f89190611bb8565b8c9a509a505050505050505050509250929050565b7f000000000000000000000000000000000000000000000000000000000000000081565b60008183106111405781611142565b825b905092915050565b600073ffffffffffffffffffffffffffffffffffffffff82169050919050565b6000819050919050565b600061118f61118a6111858461114a565b61116a565b61114a565b9050919050565b60006111a182611174565b9050919050565b60006111b382611196565b9050919050565b6111c3816111a8565b82525050565b60006020820190506111de60008301846111ba565b92915050565b60006111ef8261114a565b9050919050565b6111ff816111e4565b82525050565b600060208201905061121a60008301846111f6565b92915050565b600061122b82611196565b9050919050565b61123b81611220565b82525050565b60006020820190506112566000830184611232565b92915050565b6000604051905090565b600080fd5b600080fd5b611279816111e4565b811461128457600080fd5b50565b60008135905061129681611270565b92915050565b6000819050919050565b6112af8161129c565b81146112ba57600080fd5b50565b6000813590506112cc816112a6565b92915050565b600080604083850312156112e9576112e8611266565b5b60006112f785828601611287565b9250506020611308858286016112bd565b9150509250929050565b61131b8161129c565b82525050565b60006040820190506113366000830185611312565b6113436020830184611312565b9392505050565b600080fd5b600080fd5b6000601f19601f8301169050919050565b7f4e487b7100000000000000000000000000000000000000000000000000000000600052604160045260246000fd5b61139d82611354565b810181811067ffffffffffffffff821117156113bc576113bb611365565b5b80604052505050565b60006113cf61125c565b90506113db8282611394565b919050565b600067ffffffffffffffff8211156113fb576113fa611365565b5b61140482611354565b9050602081019050919050565b82818337600083830152505050565b600061143361142e846113e0565b6113c5565b90508281526020810184848401111561144f5761144e61134f565b5b61145a848285611411565b509392505050565b600082601f8301126114775761147661134a565b5b8135611487848260208601611420565b91505092915050565b600080604083850312156114a7576114a6611266565b5b60006114b5858286016112bd565b925050602083013567ffffffffffffffff8111156114d6576114d561126b565b5b6114e285828601611462565b9150509250929050565b60006114f782611196565b9050919050565b611507816114ec565b82525050565b600060208201905061152260008301846114fe565b92915050565b7f4e487b7100000000000000000000000000000000000000000000000000000000600052603260045260246000fd5b600081519050611566816112a6565b92915050565b60006020828403121561158257611581611266565b5b600061159084828501611557565b91505092915050565b600081519050919050565b600082825260208201905092915050565b6000819050602082019050919050565b6115ce816111e4565b82525050565b60006115e083836115c5565b60208301905092915050565b6000602082019050919050565b600061160482611599565b61160e81856115a4565b9350611619836115b5565b8060005b8381101561164a57815161163188826115d4565b975061163c836115ec565b92505060018101905061161d565b5085935050505092915050565b600060408201905061166c6000830185611312565b818103602083015261167e81846115f9565b90509392505050565b600067ffffffffffffffff8211156116a2576116a1611365565b5b602082029050602081019050919050565b600080fd5b60006116cb6116c684611687565b6113c5565b905080838252602082019050602084028301858111156116ee576116ed6116b3565b5b835b8181101561171757806117038882611557565b8452602084019350506020810190506116f0565b5050509392505050565b600082601f8301126117365761173561134a565b5b81516117468482602086016116b8565b91505092915050565b60006020828403121561176557611764611266565b5b600082015167ffffffffffffffff8111156117835761178261126b565b5b61178f84828501611721565b91505092915050565b60006060820190506117ad60008301866111f6565b6117ba60208301856111f6565b6117c76040830184611312565b949350505050565b60008115159050919050565b6117e4816117cf565b81146117ef57600080fd5b50565b600081519050611801816117db565b92915050565b60006020828403121561181d5761181c611266565b5b600061182b848285016117f2565b91505092915050565b600060408201905061184960008301856111f6565b6118566020830184611312565b9392505050565b600060a0820190506118726000830188611312565b61187f6020830187611312565b818103604083015261189181866115f9565b90506118a060608301856111f6565b6118ad6080830184611312565b9695505050505050565b600081519050919050565b600082825260208201905092915050565b6000819050602082019050919050565b6118ec8161129c565b82525050565b60006118fe83836118e3565b60208301905092915050565b6000602082019050919050565b6000611922826118b7565b61192c81856118c2565b9350611937836118d3565b8060005b8381101561196857815161194f88826118f2565b975061195a8361190a565b92505060018101905061193b565b5085935050505092915050565b6000604082019050818103600083015261198f81856115f9565b905081810360208301526119a38184611917565b90509392505050565b60006020820190506119c16000830184611312565b92915050565b600081519050919050565b600082825260208201905092915050565b60005b83811015611a015780820151818401526020810190506119e6565b60008484015250505050565b6000611a18826119c7565b611a2281856119d2565b9350611a328185602086016119e3565b611a3b81611354565b840191505092915050565b60006020820190508181036000830152611a608184611a0d565b905092915050565b600067ffffffffffffffff821115611a8357611a82611365565b5b602082029050602081019050919050565b600081519050611aa381611270565b92915050565b6000611abc611ab784611a68565b6113c5565b90508083825260208201905060208402830185811115611adf57611ade6116b3565b5b835b81811015611b085780611af48882611a94565b845260208401935050602081019050611ae1565b5050509392505050565b600082601f830112611b2757611b2661134a565b5b8151611b37848260208601611aa9565b91505092915050565b600060208284031215611b5657611b55611266565b5b600082015167ffffffffffffffff811115611b7457611b7361126b565b5b611b8084828501611b12565b91505092915050565b7f4e487b7100000000000000000000000000000000000000000000000000000000600052601160045260246000fd5b6000611bc38261129c565b9150611bce8361129c565b9250828203905081811115611be657611be5611b89565b5b92915050565b6000611bf78261129c565b9150611c028361129c565b9250828201905080821115611c1a57611c19611b89565b5b92915050565b6000611c2b8261129c565b91507fffffffffffffffffffffffffffffffffffffffffffffffffffffffffffffffff8203611c5d57611c5c611b89565b5b60018201905091905056fea26469706673582212203dcf17731c71a6180003bbdbb496bd6e734e8b41e9a2744fad6692f130c6e6d464736f6c63430008110033",
  "devdoc": {
    "kind": "dev",
    "methods": {},
    "version": 1
  },
  "userdoc": {
    "kind": "user",
    "methods": {},
    "version": 1
  },
  "storageLayout": {
    "storage": [],
    "types": null
  }
}