{
  "_format": "hh-sol-artifact-1",
  "contractName": "CO2Burner",
  "sourceName": "contracts/CO2Burner.sol",
  "abi": [
    {
      "inputs": [
        {
          "internalType": "address",
          "name": "_registry",
          "type": "address"
        },
        {
          "internalType": "address",
          "name": "_stablecoin",
          "type": "address"
        },
        {
          "internalType": "address",
          "name": "_nctToken",
          "type": "address"
        },
        {
          "internalType": "address",
          "name": "_dexRouter",
          "type": "address"
        }
      ],
      "stateMutability": "nonpayable",
      "type": "constructor"
    },
    {
      "anonymous": false,
      "inputs": [
        {
          "indexed": true,
          "internalType": "address",
          "name": "retiree",
          "type": "address"
        },
        {
          "indexed": true,
          "internalType": "address",
          "name": "token",
          "type": "address"
        },
        {
          "indexed": false,
          "internalType": "uint256",
          "name": "tcoAmount",
          "type": "uint256"
        },
        {
          "indexed": false,
          "internalType": "uint256",
          "name": "usdcAmount",
          "type": "uint256"
        }
      ],
      "name": "Retired",
      "type": "event"
    },
    {
      "inputs": [
        {
          "internalType": "address",
          "name": "projectToken",
          "type": "address"
        },
        {
          "internalType": "uint256",
          "name": "stableCoinAmount",
          "type": "uint256"
        }
      ],
      "name": "burnProjectToken",
      "outputs": [
        {
          "internalType": "uint256",
          "name": "tco2AmountBurned",
          "type": "uint256"
        },
        {
          "internalType": "uint256",
          "name": "usdcAmountBurned",
          "type": "uint256"
        }
      ],
      "stateMutability": "nonpayable",
      "type": "function"
    },
    {
      "inputs": [],
      "name": "dexRouter",
      "outputs": [
        {
          "internalType": "contract IUniswapV2Router02",
          "name": "",
          "type": "address"
        }
      ],
      "stateMutability": "view",
      "type": "function"
    },
    {
      "inputs": [],
      "name": "nctToken",
      "outputs": [
        {
          "internalType": "address",
          "name": "",
          "type": "address"
        }
      ],
      "stateMutability": "view",
      "type": "function"
    },
    {
      "inputs": [],
      "name": "registry",
      "outputs": [
        {
          "internalType": "contract Registry",
          "name": "",
          "type": "address"
        }
      ],
      "stateMutability": "view",
      "type": "function"
    },
    {
      "inputs": [],
      "name": "stablecoin",
      "outputs": [
        {
          "internalType": "contract IERC20",
          "name": "",
          "type": "address"
        }
      ],
      "stateMutability": "view",
      "type": "function"
    }
  ],
  "bytecode": "0x6101006040523480156200001257600080fd5b50604051620015f8380380620015f883398181016040528101906200003891906200017c565b8373ffffffffffffffffffffffffffffffffffffffff1660808173ffffffffffffffffffffffffffffffffffffffff16815250508273ffffffffffffffffffffffffffffffffffffffff1660a08173ffffffffffffffffffffffffffffffffffffffff16815250508173ffffffffffffffffffffffffffffffffffffffff1660e08173ffffffffffffffffffffffffffffffffffffffff16815250508073ffffffffffffffffffffffffffffffffffffffff1660c08173ffffffffffffffffffffffffffffffffffffffff168152505050505050620001ee565b600080fd5b600073ffffffffffffffffffffffffffffffffffffffff82169050919050565b6000620001448262000117565b9050919050565b620001568162000137565b81146200016257600080fd5b50565b60008151905062000176816200014b565b92915050565b6000806000806080858703121562000199576200019862000112565b5b6000620001a98782880162000165565b9450506020620001bc8782880162000165565b9350506040620001cf8782880162000165565b9250506060620001e28782880162000165565b91505092959194509250565b60805160a05160c05160e05161138a6200026e6000396000818161012b01528181610233015281816102e00152610846015260008181610107015281816102a40152818161040e015281816105ce01526106510152600081816101c4015281816104f1015281816105920152610a390152600061014f015261138a6000f3fe608060405234801561001057600080fd5b50600436106100575760003560e01c80630758d9241461005c578063105036ae1461007a5780637b103999146100985780638def6248146100b6578063e9cbd822146100e7575b600080fd5b610064610105565b6040516100719190610bb8565b60405180910390f35b610082610129565b60405161008f9190610bf4565b60405180910390f35b6100a061014d565b6040516100ad9190610c30565b60405180910390f35b6100d060048036038101906100cb9190610cc1565b610171565b6040516100de929190610d10565b60405180910390f35b6100ef610a37565b6040516100fc9190610d5a565b60405180910390f35b7f000000000000000000000000000000000000000000000000000000000000000081565b7f000000000000000000000000000000000000000000000000000000000000000081565b7f000000000000000000000000000000000000000000000000000000000000000081565b6000806000600267ffffffffffffffff81111561019157610190610d75565b5b6040519080825280602002602001820160405280156101bf5781602001602082028036833780820191505090505b5090507f0000000000000000000000000000000000000000000000000000000000000000816000815181106101f7576101f6610da4565b5b602002602001019073ffffffffffffffffffffffffffffffffffffffff16908173ffffffffffffffffffffffffffffffffffffffff16815250507f00000000000000000000000000000000000000000000000000000000000000008160018151811061026657610265610da4565b5b602002602001019073ffffffffffffffffffffffffffffffffffffffff16908173ffffffffffffffffffffffffffffffffffffffff168152505060007f000000000000000000000000000000000000000000000000000000000000000073ffffffffffffffffffffffffffffffffffffffff16631f00ca747f000000000000000000000000000000000000000000000000000000000000000073ffffffffffffffffffffffffffffffffffffffff1663523fba7f896040518263ffffffff1660e01b81526004016103379190610bf4565b602060405180830381865afa158015610354573d6000803e3d6000fd5b505050506040513d601f19601f820116820180604052508101906103789190610de8565b846040518363ffffffff1660e01b8152600401610396929190610ed3565b600060405180830381865afa1580156103b3573d6000803e3d6000fd5b505050506040513d6000823e3d601f19601f820116820180604052508101906103dc919061102d565b90506000816000815181106103f4576103f3610da4565b5b602002602001015190506104088682610a5b565b955060007f000000000000000000000000000000000000000000000000000000000000000073ffffffffffffffffffffffffffffffffffffffff1663d06ca61f88866040518363ffffffff1660e01b8152600401610467929190610ed3565b600060405180830381865afa158015610484573d6000803e3d6000fd5b505050506040513d6000823e3d601f19601f820116820180604052508101906104ad919061102d565b90506000816000815181106104c5576104c4610da4565b5b602002602001015190506000826001815181106104e5576104e4610da4565b5b602002602001015190507f000000000000000000000000000000000000000000000000000000000000000073ffffffffffffffffffffffffffffffffffffffff166323b872dd33308c6040518463ffffffff1660e01b815260040161054c93929190611076565b6020604051808303816000875af115801561056b573d6000803e3d6000fd5b505050506040513d601f19601f8201168201806040525081019061058f91906110e5565b507f000000000000000000000000000000000000000000000000000000000000000073ffffffffffffffffffffffffffffffffffffffff1663095ea7b37f0000000000000000000000000000000000000000000000000000000000000000846040518363ffffffff1660e01b815260040161060b929190611112565b6020604051808303816000875af115801561062a573d6000803e3d6000fd5b505050506040513d601f19601f8201168201806040525081019061064e91906110e5565b507f000000000000000000000000000000000000000000000000000000000000000073ffffffffffffffffffffffffffffffffffffffff166338ed17398a838930426040518663ffffffff1660e01b81526004016106b095949392919061113b565b6000604051808303816000875af11580156106cf573d6000803e3d6000fd5b505050506040513d6000823e3d601f19601f820116820180604052508101906106f8919061102d565b506000600167ffffffffffffffff81111561071657610715610d75565b5b6040519080825280602002602001820160405280156107445781602001602082028036833780820191505090505b509050818160008151811061075c5761075b610da4565b5b6020026020010181815250506000600167ffffffffffffffff81111561078557610784610d75565b5b6040519080825280602002602001820160405280156107b35781602001602082028036833780820191505090505b5090508b816000815181106107cb576107ca610da4565b5b602002602001019073ffffffffffffffffffffffffffffffffffffffff16908173ffffffffffffffffffffffffffffffffffffffff16815250506108446040518060400160405280600981526020017f616d6f756e744f7574000000000000000000000000000000000000000000000081525084610a74565b7f000000000000000000000000000000000000000000000000000000000000000073ffffffffffffffffffffffffffffffffffffffff16632b55414282846040518363ffffffff1660e01b815260040161089f929190611253565b600060405180830381600087803b1580156108b957600080fd5b505af11580156108cd573d6000803e3d6000fd5b5050505060008c73ffffffffffffffffffffffffffffffffffffffff166370a08231306040518263ffffffff1660e01b815260040161090c9190610bf4565b602060405180830381865afa158015610929573d6000803e3d6000fd5b505050506040513d601f19601f8201168201806040525081019061094d9190610de8565b90508c73ffffffffffffffffffffffffffffffffffffffff16633790cf57826040518263ffffffff1660e01b8152600401610988919061128a565b600060405180830381600087803b1580156109a257600080fd5b505af11580156109b6573d6000803e3d6000fd5b505050508c73ffffffffffffffffffffffffffffffffffffffff163373ffffffffffffffffffffffffffffffffffffffff167f350c829dba3762192f7f146eaafe340156dec54eedfaea1df84a706c1307cfb8838f604051610a19929190610d10565b60405180910390a3808c9a509a505050505050505050509250929050565b7f000000000000000000000000000000000000000000000000000000000000000081565b6000818310610a6a5781610a6c565b825b905092915050565b610b0c8282604051602401610a8a929190611324565b6040516020818303038152906040527fb60e72cc000000000000000000000000000000000000000000000000000000007bffffffffffffffffffffffffffffffffffffffffffffffffffffffff19166020820180517bffffffffffffffffffffffffffffffffffffffffffffffffffffffff8381831617835250505050610b10565b5050565b60008151905060006a636f6e736f6c652e6c6f679050602083016000808483855afa5050505050565b600073ffffffffffffffffffffffffffffffffffffffff82169050919050565b6000819050919050565b6000610b7e610b79610b7484610b39565b610b59565b610b39565b9050919050565b6000610b9082610b63565b9050919050565b6000610ba282610b85565b9050919050565b610bb281610b97565b82525050565b6000602082019050610bcd6000830184610ba9565b92915050565b6000610bde82610b39565b9050919050565b610bee81610bd3565b82525050565b6000602082019050610c096000830184610be5565b92915050565b6000610c1a82610b85565b9050919050565b610c2a81610c0f565b82525050565b6000602082019050610c456000830184610c21565b92915050565b6000604051905090565b600080fd5b600080fd5b610c6881610bd3565b8114610c7357600080fd5b50565b600081359050610c8581610c5f565b92915050565b6000819050919050565b610c9e81610c8b565b8114610ca957600080fd5b50565b600081359050610cbb81610c95565b92915050565b60008060408385031215610cd857610cd7610c55565b5b6000610ce685828601610c76565b9250506020610cf785828601610cac565b9150509250929050565b610d0a81610c8b565b82525050565b6000604082019050610d256000830185610d01565b610d326020830184610d01565b9392505050565b6000610d4482610b85565b9050919050565b610d5481610d39565b82525050565b6000602082019050610d6f6000830184610d4b565b92915050565b7f4e487b7100000000000000000000000000000000000000000000000000000000600052604160045260246000fd5b7f4e487b7100000000000000000000000000000000000000000000000000000000600052603260045260246000fd5b600081519050610de281610c95565b92915050565b600060208284031215610dfe57610dfd610c55565b5b6000610e0c84828501610dd3565b91505092915050565b600081519050919050565b600082825260208201905092915050565b6000819050602082019050919050565b610e4a81610bd3565b82525050565b6000610e5c8383610e41565b60208301905092915050565b6000602082019050919050565b6000610e8082610e15565b610e8a8185610e20565b9350610e9583610e31565b8060005b83811015610ec6578151610ead8882610e50565b9750610eb883610e68565b925050600181019050610e99565b5085935050505092915050565b6000604082019050610ee86000830185610d01565b8181036020830152610efa8184610e75565b90509392505050565b600080fd5b6000601f19601f8301169050919050565b610f2282610f08565b810181811067ffffffffffffffff82111715610f4157610f40610d75565b5b80604052505050565b6000610f54610c4b565b9050610f608282610f19565b919050565b600067ffffffffffffffff821115610f8057610f7f610d75565b5b602082029050602081019050919050565b600080fd5b6000610fa9610fa484610f65565b610f4a565b90508083825260208201905060208402830185811115610fcc57610fcb610f91565b5b835b81811015610ff55780610fe18882610dd3565b845260208401935050602081019050610fce565b5050509392505050565b600082601f83011261101457611013610f03565b5b8151611024848260208601610f96565b91505092915050565b60006020828403121561104357611042610c55565b5b600082015167ffffffffffffffff81111561106157611060610c5a565b5b61106d84828501610fff565b91505092915050565b600060608201905061108b6000830186610be5565b6110986020830185610be5565b6110a56040830184610d01565b949350505050565b60008115159050919050565b6110c2816110ad565b81146110cd57600080fd5b50565b6000815190506110df816110b9565b92915050565b6000602082840312156110fb576110fa610c55565b5b6000611109848285016110d0565b91505092915050565b60006040820190506111276000830185610be5565b6111346020830184610d01565b9392505050565b600060a0820190506111506000830188610d01565b61115d6020830187610d01565b818103604083015261116f8186610e75565b905061117e6060830185610be5565b61118b6080830184610d01565b9695505050505050565b600081519050919050565b600082825260208201905092915050565b6000819050602082019050919050565b6111ca81610c8b565b82525050565b60006111dc83836111c1565b60208301905092915050565b6000602082019050919050565b600061120082611195565b61120a81856111a0565b9350611215836111b1565b8060005b8381101561124657815161122d88826111d0565b9750611238836111e8565b925050600181019050611219565b5085935050505092915050565b6000604082019050818103600083015261126d8185610e75565b9050818103602083015261128181846111f5565b90509392505050565b600060208201905061129f6000830184610d01565b92915050565b600081519050919050565b600082825260208201905092915050565b60005b838110156112df5780820151818401526020810190506112c4565b60008484015250505050565b60006112f6826112a5565b61130081856112b0565b93506113108185602086016112c1565b61131981610f08565b840191505092915050565b6000604082019050818103600083015261133e81856112eb565b905061134d6020830184610d01565b939250505056fea2646970667358221220057c902f2ecc263d91606e9612e0f614f047f471dc78bb234ca59d7949868deb64736f6c63430008110033",
  "linkReferences": {},
  "deployedLinkReferences": {}
}